{
	"data": {
		"bytecode": {
			"linkReferences": {},
			"object": "608060405243405f55348015610013575f80fd5b5061085a806100215f395ff3fe608060405234801561000f575f80fd5b5060043610610055575f3560e01c80630c92cd6d1461005957806320e6c8f8146100755780634b463a871461007f5780639b15557b14610089578063b050b688146100a5575b5f80fd5b610073600480360381019061006e91906104eb565b6100c1565b005b61007d6101d5565b005b610087610301565b005b6100a3600480360381019061009e9190610549565b610392565b005b6100bf60048036038101906100ba91906105ce565b61041f565b005b60025f9054906101000a900473ffffffffffffffffffffffffffffffffffffffff1673ffffffffffffffffffffffffffffffffffffffff16633cc6c6045f54336040518363ffffffff1660e01b815260040161011e929190610650565b5f604051808303815f87803b158015610135575f80fd5b505af1158015610147573d5f803e3d5ffd5b5050505060025f9054906101000a900473ffffffffffffffffffffffffffffffffffffffff1673ffffffffffffffffffffffffffffffffffffffff166303b5d519826040518263ffffffff1660e01b81526004016101a59190610686565b5f604051808303815f87803b1580156101bc575f80fd5b505af11580156101ce573d5f803e3d5ffd5b5050505050565b60025f9054906101000a900473ffffffffffffffffffffffffffffffffffffffff1673ffffffffffffffffffffffffffffffffffffffff1663725f4fa76040518163ffffffff1660e01b81526004016040805180830381865afa15801561023e573d5f803e3d5ffd5b505050506040513d601f19601f8201168201806040525081019061026291906106d2565b505060035f9054906101000a900473ffffffffffffffffffffffffffffffffffffffff1673ffffffffffffffffffffffffffffffffffffffff16633adfd0705f546040518263ffffffff1660e01b81526004016102bf9190610710565b602060405180830381865afa1580156102da573d5f803e3d5ffd5b505050506040513d601f19601f820116820180604052508101906102fe919061073d565b50565b60015f9054906101000a900473ffffffffffffffffffffffffffffffffffffffff1673ffffffffffffffffffffffffffffffffffffffff16638d3aff7a6040518163ffffffff1660e01b81526004016040805180830381865afa15801561036a573d5f803e3d5ffd5b505050506040513d601f19601f8201168201806040525081019061038e919061077c565b5050565b60035f9054906101000a900473ffffffffffffffffffffffffffffffffffffffff1673ffffffffffffffffffffffffffffffffffffffff1663cf513b7f5f54836040518363ffffffff1660e01b81526004016103ef9291906107ba565b5f604051808303815f87803b158015610406575f80fd5b505af1158015610418573d5f803e3d5ffd5b5050505050565b60015f9054906101000a900473ffffffffffffffffffffffffffffffffffffffff1673ffffffffffffffffffffffffffffffffffffffff1663ef78a4d9858585856040518563ffffffff1660e01b815260040161047f94939291906107e1565b5f604051808303815f87803b158015610496575f80fd5b505af11580156104a8573d5f803e3d5ffd5b5050505050505050565b5f80fd5b5f8115159050919050565b6104ca816104b6565b81146104d4575f80fd5b50565b5f813590506104e5816104c1565b92915050565b5f60208284031215610500576104ff6104b2565b5b5f61050d848285016104d7565b91505092915050565b5f819050919050565b61052881610516565b8114610532575f80fd5b50565b5f813590506105438161051f565b92915050565b5f6020828403121561055e5761055d6104b2565b5b5f61056b84828501610535565b91505092915050565b5f73ffffffffffffffffffffffffffffffffffffffff82169050919050565b5f61059d82610574565b9050919050565b6105ad81610593565b81146105b7575f80fd5b50565b5f813590506105c8816105a4565b92915050565b5f805f80608085870312156105e6576105e56104b2565b5b5f6105f387828801610535565b945050602061060487828801610535565b9350506040610615878288016105ba565b925050606061062687828801610535565b91505092959194509250565b61063b81610516565b82525050565b61064a81610593565b82525050565b5f6040820190506106635f830185610632565b6106706020830184610641565b9392505050565b610680816104b6565b82525050565b5f6020820190506106995f830184610677565b92915050565b5f819050919050565b6106b18161069f565b81146106bb575f80fd5b50565b5f815190506106cc816106a8565b92915050565b5f80604083850312156106e8576106e76104b2565b5b5f6106f5858286016106be565b9250506020610706858286016106be565b9150509250929050565b5f6020820190506107235f830184610632565b92915050565b5f815190506107378161051f565b92915050565b5f60208284031215610752576107516104b2565b5b5f61075f84828501610729565b91505092915050565b5f81519050610776816105a4565b92915050565b5f8060408385031215610792576107916104b2565b5b5f61079f85828601610729565b92505060206107b085828601610768565b9150509250929050565b5f6040820190506107cd5f830185610632565b6107da6020830184610632565b9392505050565b5f6080820190506107f45f830187610632565b6108016020830186610632565b61080e6040830185610641565b61081b6060830184610632565b9594505050505056fea2646970667358221220154269076df996ff80b4fe29f1183e10e8a1cf8e7bc86caaaeaf9ee3864830b364736f6c63430008160033",
			"opcodes": "PUSH1 0x80 PUSH1 0x40 MSTORE NUMBER BLOCKHASH PUSH0 SSTORE CALLVALUE DUP1 ISZERO PUSH2 0x13 JUMPI PUSH0 DUP1 REVERT JUMPDEST POP PUSH2 0x85A DUP1 PUSH2 0x21 PUSH0 CODECOPY PUSH0 RETURN INVALID PUSH1 0x80 PUSH1 0x40 MSTORE CALLVALUE DUP1 ISZERO PUSH2 0xF JUMPI PUSH0 DUP1 REVERT JUMPDEST POP PUSH1 0x4 CALLDATASIZE LT PUSH2 0x55 JUMPI PUSH0 CALLDATALOAD PUSH1 0xE0 SHR DUP1 PUSH4 0xC92CD6D EQ PUSH2 0x59 JUMPI DUP1 PUSH4 0x20E6C8F8 EQ PUSH2 0x75 JUMPI DUP1 PUSH4 0x4B463A87 EQ PUSH2 0x7F JUMPI DUP1 PUSH4 0x9B15557B EQ PUSH2 0x89 JUMPI DUP1 PUSH4 0xB050B688 EQ PUSH2 0xA5 JUMPI JUMPDEST PUSH0 DUP1 REVERT JUMPDEST PUSH2 0x73 PUSH1 0x4 DUP1 CALLDATASIZE SUB DUP2 ADD SWAP1 PUSH2 0x6E SWAP2 SWAP1 PUSH2 0x4EB JUMP JUMPDEST PUSH2 0xC1 JUMP JUMPDEST STOP JUMPDEST PUSH2 0x7D PUSH2 0x1D5 JUMP JUMPDEST STOP JUMPDEST PUSH2 0x87 PUSH2 0x301 JUMP JUMPDEST STOP JUMPDEST PUSH2 0xA3 PUSH1 0x4 DUP1 CALLDATASIZE SUB DUP2 ADD SWAP1 PUSH2 0x9E SWAP2 SWAP1 PUSH2 0x549 JUMP JUMPDEST PUSH2 0x392 JUMP JUMPDEST STOP JUMPDEST PUSH2 0xBF PUSH1 0x4 DUP1 CALLDATASIZE SUB DUP2 ADD SWAP1 PUSH2 0xBA SWAP2 SWAP1 PUSH2 0x5CE JUMP JUMPDEST PUSH2 0x41F JUMP JUMPDEST STOP JUMPDEST PUSH1 0x2 PUSH0 SWAP1 SLOAD SWAP1 PUSH2 0x100 EXP SWAP1 DIV PUSH20 0xFFFFFFFFFFFFFFFFFFFFFFFFFFFFFFFFFFFFFFFF AND PUSH20 0xFFFFFFFFFFFFFFFFFFFFFFFFFFFFFFFFFFFFFFFF AND PUSH4 0x3CC6C604 PUSH0 SLOAD CALLER PUSH1 0x40 MLOAD DUP4 PUSH4 0xFFFFFFFF AND PUSH1 0xE0 SHL DUP2 MSTORE PUSH1 0x4 ADD PUSH2 0x11E SWAP3 SWAP2 SWAP1 PUSH2 0x650 JUMP JUMPDEST PUSH0 PUSH1 0x40 MLOAD DUP1 DUP4 SUB DUP2 PUSH0 DUP8 DUP1 EXTCODESIZE ISZERO DUP1 ISZERO PUSH2 0x135 JUMPI PUSH0 DUP1 REVERT JUMPDEST POP GAS CALL ISZERO DUP1 ISZERO PUSH2 0x147 JUMPI RETURNDATASIZE PUSH0 DUP1 RETURNDATACOPY RETURNDATASIZE PUSH0 REVERT JUMPDEST POP POP POP POP PUSH1 0x2 PUSH0 SWAP1 SLOAD SWAP1 PUSH2 0x100 EXP SWAP1 DIV PUSH20 0xFFFFFFFFFFFFFFFFFFFFFFFFFFFFFFFFFFFFFFFF AND PUSH20 0xFFFFFFFFFFFFFFFFFFFFFFFFFFFFFFFFFFFFFFFF AND PUSH4 0x3B5D519 DUP3 PUSH1 0x40 MLOAD DUP3 PUSH4 0xFFFFFFFF AND PUSH1 0xE0 SHL DUP2 MSTORE PUSH1 0x4 ADD PUSH2 0x1A5 SWAP2 SWAP1 PUSH2 0x686 JUMP JUMPDEST PUSH0 PUSH1 0x40 MLOAD DUP1 DUP4 SUB DUP2 PUSH0 DUP8 DUP1 EXTCODESIZE ISZERO DUP1 ISZERO PUSH2 0x1BC JUMPI PUSH0 DUP1 REVERT JUMPDEST POP GAS CALL ISZERO DUP1 ISZERO PUSH2 0x1CE JUMPI RETURNDATASIZE PUSH0 DUP1 RETURNDATACOPY RETURNDATASIZE PUSH0 REVERT JUMPDEST POP POP POP POP POP JUMP JUMPDEST PUSH1 0x2 PUSH0 SWAP1 SLOAD SWAP1 PUSH2 0x100 EXP SWAP1 DIV PUSH20 0xFFFFFFFFFFFFFFFFFFFFFFFFFFFFFFFFFFFFFFFF AND PUSH20 0xFFFFFFFFFFFFFFFFFFFFFFFFFFFFFFFFFFFFFFFF AND PUSH4 0x725F4FA7 PUSH1 0x40 MLOAD DUP2 PUSH4 0xFFFFFFFF AND PUSH1 0xE0 SHL DUP2 MSTORE PUSH1 0x4 ADD PUSH1 0x40 DUP1 MLOAD DUP1 DUP4 SUB DUP2 DUP7 GAS STATICCALL ISZERO DUP1 ISZERO PUSH2 0x23E JUMPI RETURNDATASIZE PUSH0 DUP1 RETURNDATACOPY RETURNDATASIZE PUSH0 REVERT JUMPDEST POP POP POP POP PUSH1 0x40 MLOAD RETURNDATASIZE PUSH1 0x1F NOT PUSH1 0x1F DUP3 ADD AND DUP3 ADD DUP1 PUSH1 0x40 MSTORE POP DUP2 ADD SWAP1 PUSH2 0x262 SWAP2 SWAP1 PUSH2 0x6D2 JUMP JUMPDEST POP POP PUSH1 0x3 PUSH0 SWAP1 SLOAD SWAP1 PUSH2 0x100 EXP SWAP1 DIV PUSH20 0xFFFFFFFFFFFFFFFFFFFFFFFFFFFFFFFFFFFFFFFF AND PUSH20 0xFFFFFFFFFFFFFFFFFFFFFFFFFFFFFFFFFFFFFFFF AND PUSH4 0x3ADFD070 PUSH0 SLOAD PUSH1 0x40 MLOAD DUP3 PUSH4 0xFFFFFFFF AND PUSH1 0xE0 SHL DUP2 MSTORE PUSH1 0x4 ADD PUSH2 0x2BF SWAP2 SWAP1 PUSH2 0x710 JUMP JUMPDEST PUSH1 0x20 PUSH1 0x40 MLOAD DUP1 DUP4 SUB DUP2 DUP7 GAS STATICCALL ISZERO DUP1 ISZERO PUSH2 0x2DA JUMPI RETURNDATASIZE PUSH0 DUP1 RETURNDATACOPY RETURNDATASIZE PUSH0 REVERT JUMPDEST POP POP POP POP PUSH1 0x40 MLOAD RETURNDATASIZE PUSH1 0x1F NOT PUSH1 0x1F DUP3 ADD AND DUP3 ADD DUP1 PUSH1 0x40 MSTORE POP DUP2 ADD SWAP1 PUSH2 0x2FE SWAP2 SWAP1 PUSH2 0x73D JUMP JUMPDEST POP JUMP JUMPDEST PUSH1 0x1 PUSH0 SWAP1 SLOAD SWAP1 PUSH2 0x100 EXP SWAP1 DIV PUSH20 0xFFFFFFFFFFFFFFFFFFFFFFFFFFFFFFFFFFFFFFFF AND PUSH20 0xFFFFFFFFFFFFFFFFFFFFFFFFFFFFFFFFFFFFFFFF AND PUSH4 0x8D3AFF7A PUSH1 0x40 MLOAD DUP2 PUSH4 0xFFFFFFFF AND PUSH1 0xE0 SHL DUP2 MSTORE PUSH1 0x4 ADD PUSH1 0x40 DUP1 MLOAD DUP1 DUP4 SUB DUP2 DUP7 GAS STATICCALL ISZERO DUP1 ISZERO PUSH2 0x36A JUMPI RETURNDATASIZE PUSH0 DUP1 RETURNDATACOPY RETURNDATASIZE PUSH0 REVERT JUMPDEST POP POP POP POP PUSH1 0x40 MLOAD RETURNDATASIZE PUSH1 0x1F NOT PUSH1 0x1F DUP3 ADD AND DUP3 ADD DUP1 PUSH1 0x40 MSTORE POP DUP2 ADD SWAP1 PUSH2 0x38E SWAP2 SWAP1 PUSH2 0x77C JUMP JUMPDEST POP POP JUMP JUMPDEST PUSH1 0x3 PUSH0 SWAP1 SLOAD SWAP1 PUSH2 0x100 EXP SWAP1 DIV PUSH20 0xFFFFFFFFFFFFFFFFFFFFFFFFFFFFFFFFFFFFFFFF AND PUSH20 0xFFFFFFFFFFFFFFFFFFFFFFFFFFFFFFFFFFFFFFFF AND PUSH4 0xCF513B7F PUSH0 SLOAD DUP4 PUSH1 0x40 MLOAD DUP4 PUSH4 0xFFFFFFFF AND PUSH1 0xE0 SHL DUP2 MSTORE PUSH1 0x4 ADD PUSH2 0x3EF SWAP3 SWAP2 SWAP1 PUSH2 0x7BA JUMP JUMPDEST PUSH0 PUSH1 0x40 MLOAD DUP1 DUP4 SUB DUP2 PUSH0 DUP8 DUP1 EXTCODESIZE ISZERO DUP1 ISZERO PUSH2 0x406 JUMPI PUSH0 DUP1 REVERT JUMPDEST POP GAS CALL ISZERO DUP1 ISZERO PUSH2 0x418 JUMPI RETURNDATASIZE PUSH0 DUP1 RETURNDATACOPY RETURNDATASIZE PUSH0 REVERT JUMPDEST POP POP POP POP POP JUMP JUMPDEST PUSH1 0x1 PUSH0 SWAP1 SLOAD SWAP1 PUSH2 0x100 EXP SWAP1 DIV PUSH20 0xFFFFFFFFFFFFFFFFFFFFFFFFFFFFFFFFFFFFFFFF AND PUSH20 0xFFFFFFFFFFFFFFFFFFFFFFFFFFFFFFFFFFFFFFFF AND PUSH4 0xEF78A4D9 DUP6 DUP6 DUP6 DUP6 PUSH1 0x40 MLOAD DUP6 PUSH4 0xFFFFFFFF AND PUSH1 0xE0 SHL DUP2 MSTORE PUSH1 0x4 ADD PUSH2 0x47F SWAP5 SWAP4 SWAP3 SWAP2 SWAP1 PUSH2 0x7E1 JUMP JUMPDEST PUSH0 PUSH1 0x40 MLOAD DUP1 DUP4 SUB DUP2 PUSH0 DUP8 DUP1 EXTCODESIZE ISZERO DUP1 ISZERO PUSH2 0x496 JUMPI PUSH0 DUP1 REVERT JUMPDEST POP GAS CALL ISZERO DUP1 ISZERO PUSH2 0x4A8 JUMPI RETURNDATASIZE PUSH0 DUP1 RETURNDATACOPY RETURNDATASIZE PUSH0 REVERT JUMPDEST POP POP POP POP POP POP POP POP JUMP JUMPDEST PUSH0 DUP1 REVERT JUMPDEST PUSH0 DUP2 ISZERO ISZERO SWAP1 POP SWAP2 SWAP1 POP JUMP JUMPDEST PUSH2 0x4CA DUP2 PUSH2 0x4B6 JUMP JUMPDEST DUP2 EQ PUSH2 0x4D4 JUMPI PUSH0 DUP1 REVERT JUMPDEST POP JUMP JUMPDEST PUSH0 DUP2 CALLDATALOAD SWAP1 POP PUSH2 0x4E5 DUP2 PUSH2 0x4C1 JUMP JUMPDEST SWAP3 SWAP2 POP POP JUMP JUMPDEST PUSH0 PUSH1 0x20 DUP3 DUP5 SUB SLT ISZERO PUSH2 0x500 JUMPI PUSH2 0x4FF PUSH2 0x4B2 JUMP JUMPDEST JUMPDEST PUSH0 PUSH2 0x50D DUP5 DUP3 DUP6 ADD PUSH2 0x4D7 JUMP JUMPDEST SWAP2 POP POP SWAP3 SWAP2 POP POP JUMP JUMPDEST PUSH0 DUP2 SWAP1 POP SWAP2 SWAP1 POP JUMP JUMPDEST PUSH2 0x528 DUP2 PUSH2 0x516 JUMP JUMPDEST DUP2 EQ PUSH2 0x532 JUMPI PUSH0 DUP1 REVERT JUMPDEST POP JUMP JUMPDEST PUSH0 DUP2 CALLDATALOAD SWAP1 POP PUSH2 0x543 DUP2 PUSH2 0x51F JUMP JUMPDEST SWAP3 SWAP2 POP POP JUMP JUMPDEST PUSH0 PUSH1 0x20 DUP3 DUP5 SUB SLT ISZERO PUSH2 0x55E JUMPI PUSH2 0x55D PUSH2 0x4B2 JUMP JUMPDEST JUMPDEST PUSH0 PUSH2 0x56B DUP5 DUP3 DUP6 ADD PUSH2 0x535 JUMP JUMPDEST SWAP2 POP POP SWAP3 SWAP2 POP POP JUMP JUMPDEST PUSH0 PUSH20 0xFFFFFFFFFFFFFFFFFFFFFFFFFFFFFFFFFFFFFFFF DUP3 AND SWAP1 POP SWAP2 SWAP1 POP JUMP JUMPDEST PUSH0 PUSH2 0x59D DUP3 PUSH2 0x574 JUMP JUMPDEST SWAP1 POP SWAP2 SWAP1 POP JUMP JUMPDEST PUSH2 0x5AD DUP2 PUSH2 0x593 JUMP JUMPDEST DUP2 EQ PUSH2 0x5B7 JUMPI PUSH0 DUP1 REVERT JUMPDEST POP JUMP JUMPDEST PUSH0 DUP2 CALLDATALOAD SWAP1 POP PUSH2 0x5C8 DUP2 PUSH2 0x5A4 JUMP JUMPDEST SWAP3 SWAP2 POP POP JUMP JUMPDEST PUSH0 DUP1 PUSH0 DUP1 PUSH1 0x80 DUP6 DUP8 SUB SLT ISZERO PUSH2 0x5E6 JUMPI PUSH2 0x5E5 PUSH2 0x4B2 JUMP JUMPDEST JUMPDEST PUSH0 PUSH2 0x5F3 DUP8 DUP3 DUP9 ADD PUSH2 0x535 JUMP JUMPDEST SWAP5 POP POP PUSH1 0x20 PUSH2 0x604 DUP8 DUP3 DUP9 ADD PUSH2 0x535 JUMP JUMPDEST SWAP4 POP POP PUSH1 0x40 PUSH2 0x615 DUP8 DUP3 DUP9 ADD PUSH2 0x5BA JUMP JUMPDEST SWAP3 POP POP PUSH1 0x60 PUSH2 0x626 DUP8 DUP3 DUP9 ADD PUSH2 0x535 JUMP JUMPDEST SWAP2 POP POP SWAP3 SWAP6 SWAP2 SWAP5 POP SWAP3 POP JUMP JUMPDEST PUSH2 0x63B DUP2 PUSH2 0x516 JUMP JUMPDEST DUP3 MSTORE POP POP JUMP JUMPDEST PUSH2 0x64A DUP2 PUSH2 0x593 JUMP JUMPDEST DUP3 MSTORE POP POP JUMP JUMPDEST PUSH0 PUSH1 0x40 DUP3 ADD SWAP1 POP PUSH2 0x663 PUSH0 DUP4 ADD DUP6 PUSH2 0x632 JUMP JUMPDEST PUSH2 0x670 PUSH1 0x20 DUP4 ADD DUP5 PUSH2 0x641 JUMP JUMPDEST SWAP4 SWAP3 POP POP POP JUMP JUMPDEST PUSH2 0x680 DUP2 PUSH2 0x4B6 JUMP JUMPDEST DUP3 MSTORE POP POP JUMP JUMPDEST PUSH0 PUSH1 0x20 DUP3 ADD SWAP1 POP PUSH2 0x699 PUSH0 DUP4 ADD DUP5 PUSH2 0x677 JUMP JUMPDEST SWAP3 SWAP2 POP POP JUMP JUMPDEST PUSH0 DUP2 SWAP1 POP SWAP2 SWAP1 POP JUMP JUMPDEST PUSH2 0x6B1 DUP2 PUSH2 0x69F JUMP JUMPDEST DUP2 EQ PUSH2 0x6BB JUMPI PUSH0 DUP1 REVERT JUMPDEST POP JUMP JUMPDEST PUSH0 DUP2 MLOAD SWAP1 POP PUSH2 0x6CC DUP2 PUSH2 0x6A8 JUMP JUMPDEST SWAP3 SWAP2 POP POP JUMP JUMPDEST PUSH0 DUP1 PUSH1 0x40 DUP4 DUP6 SUB SLT ISZERO PUSH2 0x6E8 JUMPI PUSH2 0x6E7 PUSH2 0x4B2 JUMP JUMPDEST JUMPDEST PUSH0 PUSH2 0x6F5 DUP6 DUP3 DUP7 ADD PUSH2 0x6BE JUMP JUMPDEST SWAP3 POP POP PUSH1 0x20 PUSH2 0x706 DUP6 DUP3 DUP7 ADD PUSH2 0x6BE JUMP JUMPDEST SWAP2 POP POP SWAP3 POP SWAP3 SWAP1 POP JUMP JUMPDEST PUSH0 PUSH1 0x20 DUP3 ADD SWAP1 POP PUSH2 0x723 PUSH0 DUP4 ADD DUP5 PUSH2 0x632 JUMP JUMPDEST SWAP3 SWAP2 POP POP JUMP JUMPDEST PUSH0 DUP2 MLOAD SWAP1 POP PUSH2 0x737 DUP2 PUSH2 0x51F JUMP JUMPDEST SWAP3 SWAP2 POP POP JUMP JUMPDEST PUSH0 PUSH1 0x20 DUP3 DUP5 SUB SLT ISZERO PUSH2 0x752 JUMPI PUSH2 0x751 PUSH2 0x4B2 JUMP JUMPDEST JUMPDEST PUSH0 PUSH2 0x75F DUP5 DUP3 DUP6 ADD PUSH2 0x729 JUMP JUMPDEST SWAP2 POP POP SWAP3 SWAP2 POP POP JUMP JUMPDEST PUSH0 DUP2 MLOAD SWAP1 POP PUSH2 0x776 DUP2 PUSH2 0x5A4 JUMP JUMPDEST SWAP3 SWAP2 POP POP JUMP JUMPDEST PUSH0 DUP1 PUSH1 0x40 DUP4 DUP6 SUB SLT ISZERO PUSH2 0x792 JUMPI PUSH2 0x791 PUSH2 0x4B2 JUMP JUMPDEST JUMPDEST PUSH0 PUSH2 0x79F DUP6 DUP3 DUP7 ADD PUSH2 0x729 JUMP JUMPDEST SWAP3 POP POP PUSH1 0x20 PUSH2 0x7B0 DUP6 DUP3 DUP7 ADD PUSH2 0x768 JUMP JUMPDEST SWAP2 POP POP SWAP3 POP SWAP3 SWAP1 POP JUMP JUMPDEST PUSH0 PUSH1 0x40 DUP3 ADD SWAP1 POP PUSH2 0x7CD PUSH0 DUP4 ADD DUP6 PUSH2 0x632 JUMP JUMPDEST PUSH2 0x7DA PUSH1 0x20 DUP4 ADD DUP5 PUSH2 0x632 JUMP JUMPDEST SWAP4 SWAP3 POP POP POP JUMP JUMPDEST PUSH0 PUSH1 0x80 DUP3 ADD SWAP1 POP PUSH2 0x7F4 PUSH0 DUP4 ADD DUP8 PUSH2 0x632 JUMP JUMPDEST PUSH2 0x801 PUSH1 0x20 DUP4 ADD DUP7 PUSH2 0x632 JUMP JUMPDEST PUSH2 0x80E PUSH1 0x40 DUP4 ADD DUP6 PUSH2 0x641 JUMP JUMPDEST PUSH2 0x81B PUSH1 0x60 DUP4 ADD DUP5 PUSH2 0x632 JUMP JUMPDEST SWAP6 SWAP5 POP POP POP POP POP JUMP INVALID LOG2 PUSH5 0x6970667358 0x22 SLT KECCAK256 ISZERO TIMESTAMP PUSH10 0x76DF996FF80B4FE29F1 XOR RETURNDATACOPY LT 0xE8 LOG1 0xCF DUP15 PUSH28 0xC86CAAAEAF9EE3864830B364736F6C63430008160033000000000000 "
		},
		"gasEstimates": {
			"creation": {
				"codeDepositCost": "427600",
				"executionCost": "22583",
				"totalCost": "450183"
			},
			"external": {
				"CreatVeto(bytes32,bytes32,address,bytes32)": "infinite",
				"ReadVeto()": "infinite",
				"Vetofeedbark(bytes32)": "infinite",
				"onVeto(bool)": "infinite",
				"showveto()": "infinite"
			}
		},
		"methodIdentifiers": {
			"CreatVeto(bytes32,bytes32,address,bytes32)": "b050b688",
			"ReadVeto()": "20e6c8f8",
			"Vetofeedbark(bytes32)": "9b15557b",
			"onVeto(bool)": "0c92cd6d",
			"showveto()": "4b463a87"
		}
	},
	"abi": [
		{
			"inputs": [
				{
					"internalType": "bytes32",
					"name": "VetoCase",
					"type": "bytes32"
				},
				{
					"internalType": "bytes32",
					"name": "Vetotitle",
					"type": "bytes32"
				},
				{
					"internalType": "address",
					"name": "Vetohosts",
					"type": "address"
				},
				{
					"internalType": "bytes32",
					"name": "ID",
					"type": "bytes32"
				}
			],
			"name": "CreatVeto",
			"outputs": [],
			"stateMutability": "nonpayable",
			"type": "function"
		},
		{
			"inputs": [],
			"name": "ReadVeto",
			"outputs": [],
			"stateMutability": "view",
			"type": "function"
		},
		{
			"inputs": [
				{
					"internalType": "bytes32",
					"name": "say",
					"type": "bytes32"
				}
			],
			"name": "Vetofeedbark",
			"outputs": [],
			"stateMutability": "nonpayable",
			"type": "function"
		},
		{
			"inputs": [
				{
					"internalType": "bool",
					"name": "value",
					"type": "bool"
				}
			],
			"name": "onVeto",
			"outputs": [],
			"stateMutability": "nonpayable",
			"type": "function"
		},
		{
			"inputs": [],
			"name": "showveto",
			"outputs": [],
			"stateMutability": "view",
			"type": "function"
		}
	]
}