{
	"data": {
		"bytecode": {
			"linkReferences": {},
			"object": "608060405234801561000f575f80fd5b506102788061001d5f395ff3fe608060405234801561000f575f80fd5b5060043610610034575f3560e01c80638d3aff7a14610038578063ef78a4d914610057575b5f80fd5b610040610073565b60405161004e92919061015f565b60405180910390f35b610071600480360381019061006c91906101de565b6100a6565b005b5f805f600201545f6001015f9054906101000a900473ffffffffffffffffffffffffffffffffffffffff16915091509091565b835f60020181905550815f6001015f6101000a81548173ffffffffffffffffffffffffffffffffffffffff021916908373ffffffffffffffffffffffffffffffffffffffff160217905550825f60030181905550805f80018190555050505050565b5f819050919050565b61011a81610108565b82525050565b5f73ffffffffffffffffffffffffffffffffffffffff82169050919050565b5f61014982610120565b9050919050565b6101598161013f565b82525050565b5f6040820190506101725f830185610111565b61017f6020830184610150565b9392505050565b5f80fd5b61019381610108565b811461019d575f80fd5b50565b5f813590506101ae8161018a565b92915050565b6101bd8161013f565b81146101c7575f80fd5b50565b5f813590506101d8816101b4565b92915050565b5f805f80608085870312156101f6576101f5610186565b5b5f610203878288016101a0565b9450506020610214878288016101a0565b9350506040610225878288016101ca565b9250506060610236878288016101a0565b9150509295919450925056fea26469706673582212207fdb329fa1600a905125fd6f3a9703adec777a79c8332bb57cdd20f2ad4b80cf64736f6c63430008160033",
			"opcodes": "PUSH1 0x80 PUSH1 0x40 MSTORE CALLVALUE DUP1 ISZERO PUSH2 0xF JUMPI PUSH0 DUP1 REVERT JUMPDEST POP PUSH2 0x278 DUP1 PUSH2 0x1D PUSH0 CODECOPY PUSH0 RETURN INVALID PUSH1 0x80 PUSH1 0x40 MSTORE CALLVALUE DUP1 ISZERO PUSH2 0xF JUMPI PUSH0 DUP1 REVERT JUMPDEST POP PUSH1 0x4 CALLDATASIZE LT PUSH2 0x34 JUMPI PUSH0 CALLDATALOAD PUSH1 0xE0 SHR DUP1 PUSH4 0x8D3AFF7A EQ PUSH2 0x38 JUMPI DUP1 PUSH4 0xEF78A4D9 EQ PUSH2 0x57 JUMPI JUMPDEST PUSH0 DUP1 REVERT JUMPDEST PUSH2 0x40 PUSH2 0x73 JUMP JUMPDEST PUSH1 0x40 MLOAD PUSH2 0x4E SWAP3 SWAP2 SWAP1 PUSH2 0x15F JUMP JUMPDEST PUSH1 0x40 MLOAD DUP1 SWAP2 SUB SWAP1 RETURN JUMPDEST PUSH2 0x71 PUSH1 0x4 DUP1 CALLDATASIZE SUB DUP2 ADD SWAP1 PUSH2 0x6C SWAP2 SWAP1 PUSH2 0x1DE JUMP JUMPDEST PUSH2 0xA6 JUMP JUMPDEST STOP JUMPDEST PUSH0 DUP1 PUSH0 PUSH1 0x2 ADD SLOAD PUSH0 PUSH1 0x1 ADD PUSH0 SWAP1 SLOAD SWAP1 PUSH2 0x100 EXP SWAP1 DIV PUSH20 0xFFFFFFFFFFFFFFFFFFFFFFFFFFFFFFFFFFFFFFFF AND SWAP2 POP SWAP2 POP SWAP1 SWAP2 JUMP JUMPDEST DUP4 PUSH0 PUSH1 0x2 ADD DUP2 SWAP1 SSTORE POP DUP2 PUSH0 PUSH1 0x1 ADD PUSH0 PUSH2 0x100 EXP DUP2 SLOAD DUP2 PUSH20 0xFFFFFFFFFFFFFFFFFFFFFFFFFFFFFFFFFFFFFFFF MUL NOT AND SWAP1 DUP4 PUSH20 0xFFFFFFFFFFFFFFFFFFFFFFFFFFFFFFFFFFFFFFFF AND MUL OR SWAP1 SSTORE POP DUP3 PUSH0 PUSH1 0x3 ADD DUP2 SWAP1 SSTORE POP DUP1 PUSH0 DUP1 ADD DUP2 SWAP1 SSTORE POP POP POP POP POP JUMP JUMPDEST PUSH0 DUP2 SWAP1 POP SWAP2 SWAP1 POP JUMP JUMPDEST PUSH2 0x11A DUP2 PUSH2 0x108 JUMP JUMPDEST DUP3 MSTORE POP POP JUMP JUMPDEST PUSH0 PUSH20 0xFFFFFFFFFFFFFFFFFFFFFFFFFFFFFFFFFFFFFFFF DUP3 AND SWAP1 POP SWAP2 SWAP1 POP JUMP JUMPDEST PUSH0 PUSH2 0x149 DUP3 PUSH2 0x120 JUMP JUMPDEST SWAP1 POP SWAP2 SWAP1 POP JUMP JUMPDEST PUSH2 0x159 DUP2 PUSH2 0x13F JUMP JUMPDEST DUP3 MSTORE POP POP JUMP JUMPDEST PUSH0 PUSH1 0x40 DUP3 ADD SWAP1 POP PUSH2 0x172 PUSH0 DUP4 ADD DUP6 PUSH2 0x111 JUMP JUMPDEST PUSH2 0x17F PUSH1 0x20 DUP4 ADD DUP5 PUSH2 0x150 JUMP JUMPDEST SWAP4 SWAP3 POP POP POP JUMP JUMPDEST PUSH0 DUP1 REVERT JUMPDEST PUSH2 0x193 DUP2 PUSH2 0x108 JUMP JUMPDEST DUP2 EQ PUSH2 0x19D JUMPI PUSH0 DUP1 REVERT JUMPDEST POP JUMP JUMPDEST PUSH0 DUP2 CALLDATALOAD SWAP1 POP PUSH2 0x1AE DUP2 PUSH2 0x18A JUMP JUMPDEST SWAP3 SWAP2 POP POP JUMP JUMPDEST PUSH2 0x1BD DUP2 PUSH2 0x13F JUMP JUMPDEST DUP2 EQ PUSH2 0x1C7 JUMPI PUSH0 DUP1 REVERT JUMPDEST POP JUMP JUMPDEST PUSH0 DUP2 CALLDATALOAD SWAP1 POP PUSH2 0x1D8 DUP2 PUSH2 0x1B4 JUMP JUMPDEST SWAP3 SWAP2 POP POP JUMP JUMPDEST PUSH0 DUP1 PUSH0 DUP1 PUSH1 0x80 DUP6 DUP8 SUB SLT ISZERO PUSH2 0x1F6 JUMPI PUSH2 0x1F5 PUSH2 0x186 JUMP JUMPDEST JUMPDEST PUSH0 PUSH2 0x203 DUP8 DUP3 DUP9 ADD PUSH2 0x1A0 JUMP JUMPDEST SWAP5 POP POP PUSH1 0x20 PUSH2 0x214 DUP8 DUP3 DUP9 ADD PUSH2 0x1A0 JUMP JUMPDEST SWAP4 POP POP PUSH1 0x40 PUSH2 0x225 DUP8 DUP3 DUP9 ADD PUSH2 0x1CA JUMP JUMPDEST SWAP3 POP POP PUSH1 0x60 PUSH2 0x236 DUP8 DUP3 DUP9 ADD PUSH2 0x1A0 JUMP JUMPDEST SWAP2 POP POP SWAP3 SWAP6 SWAP2 SWAP5 POP SWAP3 POP JUMP INVALID LOG2 PUSH5 0x6970667358 0x22 SLT KECCAK256 PUSH32 0xDB329FA1600A905125FD6F3A9703ADEC777A79C8332BB57CDD20F2AD4B80CF64 PUSH20 0x6F6C634300081600330000000000000000000000 "
		},
		"gasEstimates": {
			"creation": {
				"codeDepositCost": "126400",
				"executionCost": "169",
				"totalCost": "126569"
			},
			"external": {
				"getVeto()": "4716",
				"setVeto(bytes32,bytes32,address,bytes32)": "infinite"
			}
		},
		"methodIdentifiers": {
			"getVeto()": "8d3aff7a",
			"setVeto(bytes32,bytes32,address,bytes32)": "ef78a4d9"
		}
	},
	"abi": [
		{
			"inputs": [],
			"name": "getVeto",
			"outputs": [
				{
					"internalType": "bytes32",
					"name": "",
					"type": "bytes32"
				},
				{
					"internalType": "address",
					"name": "",
					"type": "address"
				}
			],
			"stateMutability": "view",
			"type": "function"
		},
		{
			"inputs": [
				{
					"internalType": "bytes32",
					"name": "VetoCase",
					"type": "bytes32"
				},
				{
					"internalType": "bytes32",
					"name": "Vetotitle",
					"type": "bytes32"
				},
				{
					"internalType": "address",
					"name": "Vetohosts",
					"type": "address"
				},
				{
					"internalType": "bytes32",
					"name": "ID",
					"type": "bytes32"
				}
			],
			"name": "setVeto",
			"outputs": [],
			"stateMutability": "nonpayable",
			"type": "function"
		}
	]
}