{
	"the New/contracts/veto.sol": {
		"TheVote": {
			"abi": [
				{
					"inputs": [],
					"name": "GetValue",
					"outputs": [
						{
							"internalType": "uint256",
							"name": "TrueVote",
							"type": "uint256"
						},
						{
							"internalType": "uint256",
							"name": "FalseVote",
							"type": "uint256"
						}
					],
					"stateMutability": "view",
					"type": "function"
				},
				{
					"inputs": [
						{
							"internalType": "address",
							"name": "hosts",
							"type": "address"
						}
					],
					"name": "VetoEnd",
					"outputs": [],
					"stateMutability": "nonpayable",
					"type": "function"
				},
				{
					"inputs": [
						{
							"internalType": "bool",
							"name": "value",
							"type": "bool"
						}
					],
					"name": "VoteActor",
					"outputs": [],
					"stateMutability": "nonpayable",
					"type": "function"
				},
				{
					"inputs": [
						{
							"internalType": "bytes32",
							"name": "ID",
							"type": "bytes32"
						},
						{
							"internalType": "address",
							"name": "Hosts",
							"type": "address"
						}
					],
					"name": "setID",
					"outputs": [],
					"stateMutability": "nonpayable",
					"type": "function"
				}
			],
			"devdoc": {
				"kind": "dev",
				"methods": {},
				"version": 1
			},
			"evm": {
				"assembly": "    /* \"the New/contracts/veto.sol\":77:1247  contract  TheVote {... */\n  mstore(0x40, 0x80)\n  callvalue\n  dup1\n  iszero\n  tag_1\n  jumpi\n  0x00\n  dup1\n  revert\ntag_1:\n  pop\n  dataSize(sub_0)\n  dup1\n  dataOffset(sub_0)\n  0x00\n  codecopy\n  0x00\n  return\nstop\n\nsub_0: assembly {\n        /* \"the New/contracts/veto.sol\":77:1247  contract  TheVote {... */\n      mstore(0x40, 0x80)\n      callvalue\n      dup1\n      iszero\n      tag_1\n      jumpi\n      0x00\n      dup1\n      revert\n    tag_1:\n      pop\n      jumpi(tag_2, lt(calldatasize, 0x04))\n      shr(0xe0, calldataload(0x00))\n      dup1\n      0x03b5d519\n      eq\n      tag_3\n      jumpi\n      dup1\n      0x1fa97c61\n      eq\n      tag_4\n      jumpi\n      dup1\n      0x3cc6c604\n      eq\n      tag_5\n      jumpi\n      dup1\n      0x725f4fa7\n      eq\n      tag_6\n      jumpi\n    tag_2:\n      0x00\n      dup1\n      revert\n        /* \"the New/contracts/veto.sol\":769:1078  function VoteActor(bool value)  public IsCondut{  //记录投票数据... */\n    tag_3:\n      tag_7\n      0x04\n      dup1\n      calldatasize\n      sub\n      dup2\n      add\n      swap1\n      tag_8\n      swap2\n      swap1\n      tag_9\n      jump\t// in\n    tag_8:\n      tag_10\n      jump\t// in\n    tag_7:\n      stop\n        /* \"the New/contracts/veto.sol\":617:763  function VetoEnd(address hosts) public{... */\n    tag_4:\n      tag_11\n      0x04\n      dup1\n      calldatasize\n      sub\n      dup2\n      add\n      swap1\n      tag_12\n      swap2\n      swap1\n      tag_13\n      jump\t// in\n    tag_12:\n      tag_14\n      jump\t// in\n    tag_11:\n      stop\n        /* \"the New/contracts/veto.sol\":392:505  function setID (bytes32 ID,address Hosts) public{... */\n    tag_5:\n      tag_15\n      0x04\n      dup1\n      calldatasize\n      sub\n      dup2\n      add\n      swap1\n      tag_16\n      swap2\n      swap1\n      tag_17\n      jump\t// in\n    tag_16:\n      tag_18\n      jump\t// in\n    tag_15:\n      stop\n        /* \"the New/contracts/veto.sol\":1085:1243  function GetValue() public view returns (uint TrueVote ,uint FalseVote){ //返回投票结果... */\n    tag_6:\n      tag_19\n      tag_20\n      jump\t// in\n    tag_19:\n      mload(0x40)\n      tag_21\n      swap3\n      swap2\n      swap1\n      tag_22\n      jump\t// in\n    tag_21:\n      mload(0x40)\n      dup1\n      swap2\n      sub\n      swap1\n      return\n        /* \"the New/contracts/veto.sol\":769:1078  function VoteActor(bool value)  public IsCondut{  //记录投票数据... */\n    tag_10:\n        /* \"the New/contracts/veto.sol\":569:573  true */\n      0x01\n        /* \"the New/contracts/veto.sol\":548:573  voteObject.isActiol==true */\n      iszero\n      iszero\n        /* \"the New/contracts/veto.sol\":548:558  voteObject */\n      0x00\n        /* \"the New/contracts/veto.sol\":548:567  voteObject.isActiol */\n      0x05\n      add\n      0x00\n      swap1\n      sload\n      swap1\n      0x0100\n      exp\n      swap1\n      div\n      0xff\n      and\n        /* \"the New/contracts/veto.sol\":548:573  voteObject.isActiol==true */\n      iszero\n      iszero\n      eq\n        /* \"the New/contracts/veto.sol\":540:589  require(voteObject.isActiol==true,\"Veto is end.\") */\n      tag_24\n      jumpi\n      mload(0x40)\n      0x08c379a000000000000000000000000000000000000000000000000000000000\n      dup2\n      mstore\n      0x04\n      add\n      tag_25\n      swap1\n      tag_26\n      jump\t// in\n    tag_25:\n      mload(0x40)\n      dup1\n      swap2\n      sub\n      swap1\n      revert\n    tag_24:\n        /* \"the New/contracts/veto.sol\":861:865  true */\n      0x01\n        /* \"the New/contracts/veto.sol\":852:865  value == true */\n      iszero\n      iszero\n        /* \"the New/contracts/veto.sol\":852:857  value */\n      dup2\n        /* \"the New/contracts/veto.sol\":852:865  value == true */\n      iszero\n      iszero\n      sub\n        /* \"the New/contracts/veto.sol\":848:915  if (value == true){... */\n      tag_28\n      jumpi\n        /* \"the New/contracts/veto.sol\":903:904  1 */\n      0x01\n        /* \"the New/contracts/veto.sol\":880:890  voteObject */\n      0x00\n        /* \"the New/contracts/veto.sol\":880:899  voteObject.TrueVote */\n      0x02\n      add\n      0x00\n        /* \"the New/contracts/veto.sol\":880:904  voteObject.TrueVote += 1 */\n      dup3\n      dup3\n      sload\n      tag_29\n      swap2\n      swap1\n      tag_30\n      jump\t// in\n    tag_29:\n      swap3\n      pop\n      pop\n      dup2\n      swap1\n      sstore\n      pop\n        /* \"the New/contracts/veto.sol\":848:915  if (value == true){... */\n    tag_28:\n        /* \"the New/contracts/veto.sol\":936:941  false */\n      0x00\n        /* \"the New/contracts/veto.sol\":927:941  value == false */\n      iszero\n      iszero\n        /* \"the New/contracts/veto.sol\":927:932  value */\n      dup2\n        /* \"the New/contracts/veto.sol\":927:941  value == false */\n      iszero\n      iszero\n      sub\n        /* \"the New/contracts/veto.sol\":924:993  if(value == false ){... */\n      tag_31\n      jumpi\n        /* \"the New/contracts/veto.sol\":981:982  1 */\n      0x01\n        /* \"the New/contracts/veto.sol\":957:967  voteObject */\n      0x00\n        /* \"the New/contracts/veto.sol\":957:977  voteObject.FalseVote */\n      0x03\n      add\n      0x00\n        /* \"the New/contracts/veto.sol\":957:982  voteObject.FalseVote += 1 */\n      dup3\n      dup3\n      sload\n      tag_32\n      swap2\n      swap1\n      tag_30\n      jump\t// in\n    tag_32:\n      swap3\n      pop\n      pop\n      dup2\n      swap1\n      sstore\n      pop\n        /* \"the New/contracts/veto.sol\":924:993  if(value == false ){... */\n    tag_31:\n        /* \"the New/contracts/veto.sol\":1002:1012  voteObject */\n      0x00\n        /* \"the New/contracts/veto.sol\":1002:1021  voteObject.VotedMan */\n      0x04\n      add\n        /* \"the New/contracts/veto.sol\":1027:1037  msg.sender */\n      caller\n        /* \"the New/contracts/veto.sol\":1002:1038  voteObject.VotedMan.push(msg.sender) */\n      swap1\n      dup1\n      0x01\n      dup2\n      sload\n      add\n      dup1\n      dup3\n      sstore\n      dup1\n      swap2\n      pop\n      pop\n      0x01\n      swap1\n      sub\n      swap1\n      0x00\n      mstore\n      keccak256(0x00, 0x20)\n      add\n      0x00\n      swap1\n      swap2\n      swap1\n      swap2\n      swap1\n      swap2\n      0x0100\n      exp\n      dup2\n      sload\n      dup2\n      0xffffffffffffffffffffffffffffffffffffffff\n      mul\n      not\n      and\n      swap1\n      dup4\n      0xffffffffffffffffffffffffffffffffffffffff\n      and\n      mul\n      or\n      swap1\n      sstore\n      pop\n        /* \"the New/contracts/veto.sol\":769:1078  function VoteActor(bool value)  public IsCondut{  //记录投票数据... */\n      pop\n      jump\t// out\n        /* \"the New/contracts/veto.sol\":617:763  function VetoEnd(address hosts) public{... */\n    tag_14:\n        /* \"the New/contracts/veto.sol\":691:696  hosts */\n      dup1\n        /* \"the New/contracts/veto.sol\":673:696  voteObject.Hosts==hosts */\n      0xffffffffffffffffffffffffffffffffffffffff\n      and\n        /* \"the New/contracts/veto.sol\":673:683  voteObject */\n      0x00\n        /* \"the New/contracts/veto.sol\":673:689  voteObject.Hosts */\n      0x01\n      add\n      0x00\n      swap1\n      sload\n      swap1\n      0x0100\n      exp\n      swap1\n      div\n      0xffffffffffffffffffffffffffffffffffffffff\n      and\n        /* \"the New/contracts/veto.sol\":673:696  voteObject.Hosts==hosts */\n      0xffffffffffffffffffffffffffffffffffffffff\n      and\n      eq\n        /* \"the New/contracts/veto.sol\":665:721  require(voteObject.Hosts==hosts,\"you not is veto hosts\") */\n      tag_35\n      jumpi\n      mload(0x40)\n      0x08c379a000000000000000000000000000000000000000000000000000000000\n      dup2\n      mstore\n      0x04\n      add\n      tag_36\n      swap1\n      tag_37\n      jump\t// in\n    tag_36:\n      mload(0x40)\n      dup1\n      swap2\n      sub\n      swap1\n      revert\n    tag_35:\n        /* \"the New/contracts/veto.sol\":751:756  false */\n      0x00\n        /* \"the New/contracts/veto.sol\":731:741  voteObject */\n      dup1\n        /* \"the New/contracts/veto.sol\":731:750  voteObject.isActiol */\n      0x05\n      add\n      0x00\n        /* \"the New/contracts/veto.sol\":731:756  voteObject.isActiol=false */\n      0x0100\n      exp\n      dup2\n      sload\n      dup2\n      0xff\n      mul\n      not\n      and\n      swap1\n      dup4\n      iszero\n      iszero\n      mul\n      or\n      swap1\n      sstore\n      pop\n        /* \"the New/contracts/veto.sol\":617:763  function VetoEnd(address hosts) public{... */\n      pop\n      jump\t// out\n        /* \"the New/contracts/veto.sol\":392:505  function setID (bytes32 ID,address Hosts) public{... */\n    tag_18:\n        /* \"the New/contracts/veto.sol\":464:466  ID */\n      dup2\n        /* \"the New/contracts/veto.sol\":450:460  voteObject */\n      0x00\n        /* \"the New/contracts/veto.sol\":450:463  voteObject.ID */\n      dup1\n      add\n        /* \"the New/contracts/veto.sol\":450:466  voteObject.ID=ID */\n      dup2\n      swap1\n      sstore\n      pop\n        /* \"the New/contracts/veto.sol\":493:498  Hosts */\n      dup1\n        /* \"the New/contracts/veto.sol\":476:486  voteObject */\n      0x00\n        /* \"the New/contracts/veto.sol\":476:492  voteObject.Hosts */\n      0x01\n      add\n      0x00\n        /* \"the New/contracts/veto.sol\":476:498  voteObject.Hosts=Hosts */\n      0x0100\n      exp\n      dup2\n      sload\n      dup2\n      0xffffffffffffffffffffffffffffffffffffffff\n      mul\n      not\n      and\n      swap1\n      dup4\n      0xffffffffffffffffffffffffffffffffffffffff\n      and\n      mul\n      or\n      swap1\n      sstore\n      pop\n        /* \"the New/contracts/veto.sol\":392:505  function setID (bytes32 ID,address Hosts) public{... */\n      pop\n      pop\n      jump\t// out\n        /* \"the New/contracts/veto.sol\":1085:1243  function GetValue() public view returns (uint TrueVote ,uint FalseVote){ //返回投票结果... */\n    tag_20:\n        /* \"the New/contracts/veto.sol\":1126:1139  uint TrueVote */\n      0x00\n        /* \"the New/contracts/veto.sol\":1141:1155  uint FalseVote */\n      dup1\n        /* \"the New/contracts/veto.sol\":1195:1205  voteObject */\n      0x00\n        /* \"the New/contracts/veto.sol\":1195:1214  voteObject.TrueVote */\n      0x02\n      add\n      sload\n        /* \"the New/contracts/veto.sol\":1215:1225  voteObject */\n      0x00\n        /* \"the New/contracts/veto.sol\":1215:1235  voteObject.FalseVote */\n      0x03\n      add\n      sload\n        /* \"the New/contracts/veto.sol\":1187:1236  return (voteObject.TrueVote,voteObject.FalseVote) */\n      swap2\n      pop\n      swap2\n      pop\n        /* \"the New/contracts/veto.sol\":1085:1243  function GetValue() public view returns (uint TrueVote ,uint FalseVote){ //返回投票结果... */\n      swap1\n      swap2\n      jump\t// out\n        /* \"#utility.yul\":88:205   */\n    tag_41:\n        /* \"#utility.yul\":197:198   */\n      0x00\n        /* \"#utility.yul\":194:195   */\n      dup1\n        /* \"#utility.yul\":187:199   */\n      revert\n        /* \"#utility.yul\":334:424   */\n    tag_43:\n        /* \"#utility.yul\":368:375   */\n      0x00\n        /* \"#utility.yul\":411:416   */\n      dup2\n        /* \"#utility.yul\":404:417   */\n      iszero\n        /* \"#utility.yul\":397:418   */\n      iszero\n        /* \"#utility.yul\":386:418   */\n      swap1\n      pop\n        /* \"#utility.yul\":334:424   */\n      swap2\n      swap1\n      pop\n      jump\t// out\n        /* \"#utility.yul\":430:546   */\n    tag_44:\n        /* \"#utility.yul\":500:521   */\n      tag_67\n        /* \"#utility.yul\":515:520   */\n      dup2\n        /* \"#utility.yul\":500:521   */\n      tag_43\n      jump\t// in\n    tag_67:\n        /* \"#utility.yul\":493:498   */\n      dup2\n        /* \"#utility.yul\":490:522   */\n      eq\n        /* \"#utility.yul\":480:540   */\n      tag_68\n      jumpi\n        /* \"#utility.yul\":536:537   */\n      0x00\n        /* \"#utility.yul\":533:534   */\n      dup1\n        /* \"#utility.yul\":526:538   */\n      revert\n        /* \"#utility.yul\":480:540   */\n    tag_68:\n        /* \"#utility.yul\":430:546   */\n      pop\n      jump\t// out\n        /* \"#utility.yul\":552:685   */\n    tag_45:\n        /* \"#utility.yul\":595:600   */\n      0x00\n        /* \"#utility.yul\":633:639   */\n      dup2\n        /* \"#utility.yul\":620:640   */\n      calldataload\n        /* \"#utility.yul\":611:640   */\n      swap1\n      pop\n        /* \"#utility.yul\":649:679   */\n      tag_70\n        /* \"#utility.yul\":673:678   */\n      dup2\n        /* \"#utility.yul\":649:679   */\n      tag_44\n      jump\t// in\n    tag_70:\n        /* \"#utility.yul\":552:685   */\n      swap3\n      swap2\n      pop\n      pop\n      jump\t// out\n        /* \"#utility.yul\":691:1014   */\n    tag_9:\n        /* \"#utility.yul\":747:753   */\n      0x00\n        /* \"#utility.yul\":796:798   */\n      0x20\n        /* \"#utility.yul\":784:793   */\n      dup3\n        /* \"#utility.yul\":775:782   */\n      dup5\n        /* \"#utility.yul\":771:794   */\n      sub\n        /* \"#utility.yul\":767:799   */\n      slt\n        /* \"#utility.yul\":764:883   */\n      iszero\n      tag_72\n      jumpi\n        /* \"#utility.yul\":802:881   */\n      tag_73\n      tag_41\n      jump\t// in\n    tag_73:\n        /* \"#utility.yul\":764:883   */\n    tag_72:\n        /* \"#utility.yul\":922:923   */\n      0x00\n        /* \"#utility.yul\":947:997   */\n      tag_74\n        /* \"#utility.yul\":989:996   */\n      dup5\n        /* \"#utility.yul\":980:986   */\n      dup3\n        /* \"#utility.yul\":969:978   */\n      dup6\n        /* \"#utility.yul\":965:987   */\n      add\n        /* \"#utility.yul\":947:997   */\n      tag_45\n      jump\t// in\n    tag_74:\n        /* \"#utility.yul\":937:997   */\n      swap2\n      pop\n        /* \"#utility.yul\":893:1007   */\n      pop\n        /* \"#utility.yul\":691:1014   */\n      swap3\n      swap2\n      pop\n      pop\n      jump\t// out\n        /* \"#utility.yul\":1020:1146   */\n    tag_46:\n        /* \"#utility.yul\":1057:1064   */\n      0x00\n        /* \"#utility.yul\":1097:1139   */\n      0xffffffffffffffffffffffffffffffffffffffff\n        /* \"#utility.yul\":1090:1095   */\n      dup3\n        /* \"#utility.yul\":1086:1140   */\n      and\n        /* \"#utility.yul\":1075:1140   */\n      swap1\n      pop\n        /* \"#utility.yul\":1020:1146   */\n      swap2\n      swap1\n      pop\n      jump\t// out\n        /* \"#utility.yul\":1152:1248   */\n    tag_47:\n        /* \"#utility.yul\":1189:1196   */\n      0x00\n        /* \"#utility.yul\":1218:1242   */\n      tag_77\n        /* \"#utility.yul\":1236:1241   */\n      dup3\n        /* \"#utility.yul\":1218:1242   */\n      tag_46\n      jump\t// in\n    tag_77:\n        /* \"#utility.yul\":1207:1242   */\n      swap1\n      pop\n        /* \"#utility.yul\":1152:1248   */\n      swap2\n      swap1\n      pop\n      jump\t// out\n        /* \"#utility.yul\":1254:1376   */\n    tag_48:\n        /* \"#utility.yul\":1327:1351   */\n      tag_79\n        /* \"#utility.yul\":1345:1350   */\n      dup2\n        /* \"#utility.yul\":1327:1351   */\n      tag_47\n      jump\t// in\n    tag_79:\n        /* \"#utility.yul\":1320:1325   */\n      dup2\n        /* \"#utility.yul\":1317:1352   */\n      eq\n        /* \"#utility.yul\":1307:1370   */\n      tag_80\n      jumpi\n        /* \"#utility.yul\":1366:1367   */\n      0x00\n        /* \"#utility.yul\":1363:1364   */\n      dup1\n        /* \"#utility.yul\":1356:1368   */\n      revert\n        /* \"#utility.yul\":1307:1370   */\n    tag_80:\n        /* \"#utility.yul\":1254:1376   */\n      pop\n      jump\t// out\n        /* \"#utility.yul\":1382:1521   */\n    tag_49:\n        /* \"#utility.yul\":1428:1433   */\n      0x00\n        /* \"#utility.yul\":1466:1472   */\n      dup2\n        /* \"#utility.yul\":1453:1473   */\n      calldataload\n        /* \"#utility.yul\":1444:1473   */\n      swap1\n      pop\n        /* \"#utility.yul\":1482:1515   */\n      tag_82\n        /* \"#utility.yul\":1509:1514   */\n      dup2\n        /* \"#utility.yul\":1482:1515   */\n      tag_48\n      jump\t// in\n    tag_82:\n        /* \"#utility.yul\":1382:1521   */\n      swap3\n      swap2\n      pop\n      pop\n      jump\t// out\n        /* \"#utility.yul\":1527:1856   */\n    tag_13:\n        /* \"#utility.yul\":1586:1592   */\n      0x00\n        /* \"#utility.yul\":1635:1637   */\n      0x20\n        /* \"#utility.yul\":1623:1632   */\n      dup3\n        /* \"#utility.yul\":1614:1621   */\n      dup5\n        /* \"#utility.yul\":1610:1633   */\n      sub\n        /* \"#utility.yul\":1606:1638   */\n      slt\n        /* \"#utility.yul\":1603:1722   */\n      iszero\n      tag_84\n      jumpi\n        /* \"#utility.yul\":1641:1720   */\n      tag_85\n      tag_41\n      jump\t// in\n    tag_85:\n        /* \"#utility.yul\":1603:1722   */\n    tag_84:\n        /* \"#utility.yul\":1761:1762   */\n      0x00\n        /* \"#utility.yul\":1786:1839   */\n      tag_86\n        /* \"#utility.yul\":1831:1838   */\n      dup5\n        /* \"#utility.yul\":1822:1828   */\n      dup3\n        /* \"#utility.yul\":1811:1820   */\n      dup6\n        /* \"#utility.yul\":1807:1829   */\n      add\n        /* \"#utility.yul\":1786:1839   */\n      tag_49\n      jump\t// in\n    tag_86:\n        /* \"#utility.yul\":1776:1839   */\n      swap2\n      pop\n        /* \"#utility.yul\":1732:1849   */\n      pop\n        /* \"#utility.yul\":1527:1856   */\n      swap3\n      swap2\n      pop\n      pop\n      jump\t// out\n        /* \"#utility.yul\":1862:1939   */\n    tag_50:\n        /* \"#utility.yul\":1899:1906   */\n      0x00\n        /* \"#utility.yul\":1928:1933   */\n      dup2\n        /* \"#utility.yul\":1917:1933   */\n      swap1\n      pop\n        /* \"#utility.yul\":1862:1939   */\n      swap2\n      swap1\n      pop\n      jump\t// out\n        /* \"#utility.yul\":1945:2067   */\n    tag_51:\n        /* \"#utility.yul\":2018:2042   */\n      tag_89\n        /* \"#utility.yul\":2036:2041   */\n      dup2\n        /* \"#utility.yul\":2018:2042   */\n      tag_50\n      jump\t// in\n    tag_89:\n        /* \"#utility.yul\":2011:2016   */\n      dup2\n        /* \"#utility.yul\":2008:2043   */\n      eq\n        /* \"#utility.yul\":1998:2061   */\n      tag_90\n      jumpi\n        /* \"#utility.yul\":2057:2058   */\n      0x00\n        /* \"#utility.yul\":2054:2055   */\n      dup1\n        /* \"#utility.yul\":2047:2059   */\n      revert\n        /* \"#utility.yul\":1998:2061   */\n    tag_90:\n        /* \"#utility.yul\":1945:2067   */\n      pop\n      jump\t// out\n        /* \"#utility.yul\":2073:2212   */\n    tag_52:\n        /* \"#utility.yul\":2119:2124   */\n      0x00\n        /* \"#utility.yul\":2157:2163   */\n      dup2\n        /* \"#utility.yul\":2144:2164   */\n      calldataload\n        /* \"#utility.yul\":2135:2164   */\n      swap1\n      pop\n        /* \"#utility.yul\":2173:2206   */\n      tag_92\n        /* \"#utility.yul\":2200:2205   */\n      dup2\n        /* \"#utility.yul\":2173:2206   */\n      tag_51\n      jump\t// in\n    tag_92:\n        /* \"#utility.yul\":2073:2212   */\n      swap3\n      swap2\n      pop\n      pop\n      jump\t// out\n        /* \"#utility.yul\":2218:2692   */\n    tag_17:\n        /* \"#utility.yul\":2286:2292   */\n      0x00\n        /* \"#utility.yul\":2294:2300   */\n      dup1\n        /* \"#utility.yul\":2343:2345   */\n      0x40\n        /* \"#utility.yul\":2331:2340   */\n      dup4\n        /* \"#utility.yul\":2322:2329   */\n      dup6\n        /* \"#utility.yul\":2318:2341   */\n      sub\n        /* \"#utility.yul\":2314:2346   */\n      slt\n        /* \"#utility.yul\":2311:2430   */\n      iszero\n      tag_94\n      jumpi\n        /* \"#utility.yul\":2349:2428   */\n      tag_95\n      tag_41\n      jump\t// in\n    tag_95:\n        /* \"#utility.yul\":2311:2430   */\n    tag_94:\n        /* \"#utility.yul\":2469:2470   */\n      0x00\n        /* \"#utility.yul\":2494:2547   */\n      tag_96\n        /* \"#utility.yul\":2539:2546   */\n      dup6\n        /* \"#utility.yul\":2530:2536   */\n      dup3\n        /* \"#utility.yul\":2519:2528   */\n      dup7\n        /* \"#utility.yul\":2515:2537   */\n      add\n        /* \"#utility.yul\":2494:2547   */\n      tag_52\n      jump\t// in\n    tag_96:\n        /* \"#utility.yul\":2484:2547   */\n      swap3\n      pop\n        /* \"#utility.yul\":2440:2557   */\n      pop\n        /* \"#utility.yul\":2596:2598   */\n      0x20\n        /* \"#utility.yul\":2622:2675   */\n      tag_97\n        /* \"#utility.yul\":2667:2674   */\n      dup6\n        /* \"#utility.yul\":2658:2664   */\n      dup3\n        /* \"#utility.yul\":2647:2656   */\n      dup7\n        /* \"#utility.yul\":2643:2665   */\n      add\n        /* \"#utility.yul\":2622:2675   */\n      tag_49\n      jump\t// in\n    tag_97:\n        /* \"#utility.yul\":2612:2675   */\n      swap2\n      pop\n        /* \"#utility.yul\":2567:2685   */\n      pop\n        /* \"#utility.yul\":2218:2692   */\n      swap3\n      pop\n      swap3\n      swap1\n      pop\n      jump\t// out\n        /* \"#utility.yul\":2698:2775   */\n    tag_53:\n        /* \"#utility.yul\":2735:2742   */\n      0x00\n        /* \"#utility.yul\":2764:2769   */\n      dup2\n        /* \"#utility.yul\":2753:2769   */\n      swap1\n      pop\n        /* \"#utility.yul\":2698:2775   */\n      swap2\n      swap1\n      pop\n      jump\t// out\n        /* \"#utility.yul\":2781:2899   */\n    tag_54:\n        /* \"#utility.yul\":2868:2892   */\n      tag_100\n        /* \"#utility.yul\":2886:2891   */\n      dup2\n        /* \"#utility.yul\":2868:2892   */\n      tag_53\n      jump\t// in\n    tag_100:\n        /* \"#utility.yul\":2863:2866   */\n      dup3\n        /* \"#utility.yul\":2856:2893   */\n      mstore\n        /* \"#utility.yul\":2781:2899   */\n      pop\n      pop\n      jump\t// out\n        /* \"#utility.yul\":2905:3237   */\n    tag_22:\n        /* \"#utility.yul\":3026:3030   */\n      0x00\n        /* \"#utility.yul\":3064:3066   */\n      0x40\n        /* \"#utility.yul\":3053:3062   */\n      dup3\n        /* \"#utility.yul\":3049:3067   */\n      add\n        /* \"#utility.yul\":3041:3067   */\n      swap1\n      pop\n        /* \"#utility.yul\":3077:3148   */\n      tag_102\n        /* \"#utility.yul\":3145:3146   */\n      0x00\n        /* \"#utility.yul\":3134:3143   */\n      dup4\n        /* \"#utility.yul\":3130:3147   */\n      add\n        /* \"#utility.yul\":3121:3127   */\n      dup6\n        /* \"#utility.yul\":3077:3148   */\n      tag_54\n      jump\t// in\n    tag_102:\n        /* \"#utility.yul\":3158:3230   */\n      tag_103\n        /* \"#utility.yul\":3226:3228   */\n      0x20\n        /* \"#utility.yul\":3215:3224   */\n      dup4\n        /* \"#utility.yul\":3211:3229   */\n      add\n        /* \"#utility.yul\":3202:3208   */\n      dup5\n        /* \"#utility.yul\":3158:3230   */\n      tag_54\n      jump\t// in\n    tag_103:\n        /* \"#utility.yul\":2905:3237   */\n      swap4\n      swap3\n      pop\n      pop\n      pop\n      jump\t// out\n        /* \"#utility.yul\":3243:3412   */\n    tag_55:\n        /* \"#utility.yul\":3327:3338   */\n      0x00\n        /* \"#utility.yul\":3361:3367   */\n      dup3\n        /* \"#utility.yul\":3356:3359   */\n      dup3\n        /* \"#utility.yul\":3349:3368   */\n      mstore\n        /* \"#utility.yul\":3401:3405   */\n      0x20\n        /* \"#utility.yul\":3396:3399   */\n      dup3\n        /* \"#utility.yul\":3392:3406   */\n      add\n        /* \"#utility.yul\":3377:3406   */\n      swap1\n      pop\n        /* \"#utility.yul\":3243:3412   */\n      swap3\n      swap2\n      pop\n      pop\n      jump\t// out\n        /* \"#utility.yul\":3418:3580   */\n    tag_56:\n        /* \"#utility.yul\":3558:3572   */\n      0x5665746f20697320656e642e0000000000000000000000000000000000000000\n        /* \"#utility.yul\":3554:3555   */\n      0x00\n        /* \"#utility.yul\":3546:3552   */\n      dup3\n        /* \"#utility.yul\":3542:3556   */\n      add\n        /* \"#utility.yul\":3535:3573   */\n      mstore\n        /* \"#utility.yul\":3418:3580   */\n      pop\n      jump\t// out\n        /* \"#utility.yul\":3586:3952   */\n    tag_57:\n        /* \"#utility.yul\":3728:3731   */\n      0x00\n        /* \"#utility.yul\":3749:3816   */\n      tag_107\n        /* \"#utility.yul\":3813:3815   */\n      0x0c\n        /* \"#utility.yul\":3808:3811   */\n      dup4\n        /* \"#utility.yul\":3749:3816   */\n      tag_55\n      jump\t// in\n    tag_107:\n        /* \"#utility.yul\":3742:3816   */\n      swap2\n      pop\n        /* \"#utility.yul\":3825:3918   */\n      tag_108\n        /* \"#utility.yul\":3914:3917   */\n      dup3\n        /* \"#utility.yul\":3825:3918   */\n      tag_56\n      jump\t// in\n    tag_108:\n        /* \"#utility.yul\":3943:3945   */\n      0x20\n        /* \"#utility.yul\":3938:3941   */\n      dup3\n        /* \"#utility.yul\":3934:3946   */\n      add\n        /* \"#utility.yul\":3927:3946   */\n      swap1\n      pop\n        /* \"#utility.yul\":3586:3952   */\n      swap2\n      swap1\n      pop\n      jump\t// out\n        /* \"#utility.yul\":3958:4377   */\n    tag_26:\n        /* \"#utility.yul\":4124:4128   */\n      0x00\n        /* \"#utility.yul\":4162:4164   */\n      0x20\n        /* \"#utility.yul\":4151:4160   */\n      dup3\n        /* \"#utility.yul\":4147:4165   */\n      add\n        /* \"#utility.yul\":4139:4165   */\n      swap1\n      pop\n        /* \"#utility.yul\":4211:4220   */\n      dup2\n        /* \"#utility.yul\":4205:4209   */\n      dup2\n        /* \"#utility.yul\":4201:4221   */\n      sub\n        /* \"#utility.yul\":4197:4198   */\n      0x00\n        /* \"#utility.yul\":4186:4195   */\n      dup4\n        /* \"#utility.yul\":4182:4199   */\n      add\n        /* \"#utility.yul\":4175:4222   */\n      mstore\n        /* \"#utility.yul\":4239:4370   */\n      tag_110\n        /* \"#utility.yul\":4365:4369   */\n      dup2\n        /* \"#utility.yul\":4239:4370   */\n      tag_57\n      jump\t// in\n    tag_110:\n        /* \"#utility.yul\":4231:4370   */\n      swap1\n      pop\n        /* \"#utility.yul\":3958:4377   */\n      swap2\n      swap1\n      pop\n      jump\t// out\n        /* \"#utility.yul\":4383:4563   */\n    tag_58:\n        /* \"#utility.yul\":4431:4508   */\n      0x4e487b7100000000000000000000000000000000000000000000000000000000\n        /* \"#utility.yul\":4428:4429   */\n      0x00\n        /* \"#utility.yul\":4421:4509   */\n      mstore\n        /* \"#utility.yul\":4528:4532   */\n      0x11\n        /* \"#utility.yul\":4525:4526   */\n      0x04\n        /* \"#utility.yul\":4518:4533   */\n      mstore\n        /* \"#utility.yul\":4552:4556   */\n      0x24\n        /* \"#utility.yul\":4549:4550   */\n      0x00\n        /* \"#utility.yul\":4542:4557   */\n      revert\n        /* \"#utility.yul\":4569:4760   */\n    tag_30:\n        /* \"#utility.yul\":4609:4612   */\n      0x00\n        /* \"#utility.yul\":4628:4648   */\n      tag_113\n        /* \"#utility.yul\":4646:4647   */\n      dup3\n        /* \"#utility.yul\":4628:4648   */\n      tag_53\n      jump\t// in\n    tag_113:\n        /* \"#utility.yul\":4623:4648   */\n      swap2\n      pop\n        /* \"#utility.yul\":4662:4682   */\n      tag_114\n        /* \"#utility.yul\":4680:4681   */\n      dup4\n        /* \"#utility.yul\":4662:4682   */\n      tag_53\n      jump\t// in\n    tag_114:\n        /* \"#utility.yul\":4657:4682   */\n      swap3\n      pop\n        /* \"#utility.yul\":4705:4706   */\n      dup3\n        /* \"#utility.yul\":4702:4703   */\n      dup3\n        /* \"#utility.yul\":4698:4707   */\n      add\n        /* \"#utility.yul\":4691:4707   */\n      swap1\n      pop\n        /* \"#utility.yul\":4726:4729   */\n      dup1\n        /* \"#utility.yul\":4723:4724   */\n      dup3\n        /* \"#utility.yul\":4720:4730   */\n      gt\n        /* \"#utility.yul\":4717:4753   */\n      iszero\n      tag_115\n      jumpi\n        /* \"#utility.yul\":4733:4751   */\n      tag_116\n      tag_58\n      jump\t// in\n    tag_116:\n        /* \"#utility.yul\":4717:4753   */\n    tag_115:\n        /* \"#utility.yul\":4569:4760   */\n      swap3\n      swap2\n      pop\n      pop\n      jump\t// out\n        /* \"#utility.yul\":4766:4937   */\n    tag_59:\n        /* \"#utility.yul\":4906:4929   */\n      0x796f75206e6f74206973207665746f20686f7374730000000000000000000000\n        /* \"#utility.yul\":4902:4903   */\n      0x00\n        /* \"#utility.yul\":4894:4900   */\n      dup3\n        /* \"#utility.yul\":4890:4904   */\n      add\n        /* \"#utility.yul\":4883:4930   */\n      mstore\n        /* \"#utility.yul\":4766:4937   */\n      pop\n      jump\t// out\n        /* \"#utility.yul\":4943:5309   */\n    tag_60:\n        /* \"#utility.yul\":5085:5088   */\n      0x00\n        /* \"#utility.yul\":5106:5173   */\n      tag_119\n        /* \"#utility.yul\":5170:5172   */\n      0x15\n        /* \"#utility.yul\":5165:5168   */\n      dup4\n        /* \"#utility.yul\":5106:5173   */\n      tag_55\n      jump\t// in\n    tag_119:\n        /* \"#utility.yul\":5099:5173   */\n      swap2\n      pop\n        /* \"#utility.yul\":5182:5275   */\n      tag_120\n        /* \"#utility.yul\":5271:5274   */\n      dup3\n        /* \"#utility.yul\":5182:5275   */\n      tag_59\n      jump\t// in\n    tag_120:\n        /* \"#utility.yul\":5300:5302   */\n      0x20\n        /* \"#utility.yul\":5295:5298   */\n      dup3\n        /* \"#utility.yul\":5291:5303   */\n      add\n        /* \"#utility.yul\":5284:5303   */\n      swap1\n      pop\n        /* \"#utility.yul\":4943:5309   */\n      swap2\n      swap1\n      pop\n      jump\t// out\n        /* \"#utility.yul\":5315:5734   */\n    tag_37:\n        /* \"#utility.yul\":5481:5485   */\n      0x00\n        /* \"#utility.yul\":5519:5521   */\n      0x20\n        /* \"#utility.yul\":5508:5517   */\n      dup3\n        /* \"#utility.yul\":5504:5522   */\n      add\n        /* \"#utility.yul\":5496:5522   */\n      swap1\n      pop\n        /* \"#utility.yul\":5568:5577   */\n      dup2\n        /* \"#utility.yul\":5562:5566   */\n      dup2\n        /* \"#utility.yul\":5558:5578   */\n      sub\n        /* \"#utility.yul\":5554:5555   */\n      0x00\n        /* \"#utility.yul\":5543:5552   */\n      dup4\n        /* \"#utility.yul\":5539:5556   */\n      add\n        /* \"#utility.yul\":5532:5579   */\n      mstore\n        /* \"#utility.yul\":5596:5727   */\n      tag_122\n        /* \"#utility.yul\":5722:5726   */\n      dup2\n        /* \"#utility.yul\":5596:5727   */\n      tag_60\n      jump\t// in\n    tag_122:\n        /* \"#utility.yul\":5588:5727   */\n      swap1\n      pop\n        /* \"#utility.yul\":5315:5734   */\n      swap2\n      swap1\n      pop\n      jump\t// out\n\n    auxdata: 0xa264697066735822122029873c81b00dbe9dc006528126a14a98ef44e519f93819db171018304713d43964736f6c63430008160033\n}\n",
				"bytecode": {
					"linkReferences": {},
					"object": "608060405234801561000f575f80fd5b506105ec8061001d5f395ff3fe608060405234801561000f575f80fd5b506004361061004a575f3560e01c806303b5d5191461004e5780631fa97c611461006a5780633cc6c60414610086578063725f4fa7146100a2575b5f80fd5b61006860048036038101906100639190610316565b6100c1565b005b610084600480360381019061007f919061039b565b6101cc565b005b6100a0600480360381019061009b91906103f9565b61027b565b005b6100aa6102c9565b6040516100b892919061044f565b60405180910390f35b600115155f6005015f9054906101000a900460ff16151514610118576040517f08c379a000000000000000000000000000000000000000000000000000000000815260040161010f906104d0565b60405180910390fd5b60011515811515036101405760015f6002015f828254610138919061051b565b925050819055505b5f1515811515036101675760015f6003015f82825461015f919061051b565b925050819055505b5f60040133908060018154018082558091505060019003905f5260205f20015f9091909190916101000a81548173ffffffffffffffffffffffffffffffffffffffff021916908373ffffffffffffffffffffffffffffffffffffffff16021790555050565b8073ffffffffffffffffffffffffffffffffffffffff165f6001015f9054906101000a900473ffffffffffffffffffffffffffffffffffffffff1673ffffffffffffffffffffffffffffffffffffffff161461025d576040517f08c379a000000000000000000000000000000000000000000000000000000000815260040161025490610598565b60405180910390fd5b5f806005015f6101000a81548160ff02191690831515021790555050565b815f800181905550805f6001015f6101000a81548173ffffffffffffffffffffffffffffffffffffffff021916908373ffffffffffffffffffffffffffffffffffffffff1602179055505050565b5f805f600201545f60030154915091509091565b5f80fd5b5f8115159050919050565b6102f5816102e1565b81146102ff575f80fd5b50565b5f81359050610310816102ec565b92915050565b5f6020828403121561032b5761032a6102dd565b5b5f61033884828501610302565b91505092915050565b5f73ffffffffffffffffffffffffffffffffffffffff82169050919050565b5f61036a82610341565b9050919050565b61037a81610360565b8114610384575f80fd5b50565b5f8135905061039581610371565b92915050565b5f602082840312156103b0576103af6102dd565b5b5f6103bd84828501610387565b91505092915050565b5f819050919050565b6103d8816103c6565b81146103e2575f80fd5b50565b5f813590506103f3816103cf565b92915050565b5f806040838503121561040f5761040e6102dd565b5b5f61041c858286016103e5565b925050602061042d85828601610387565b9150509250929050565b5f819050919050565b61044981610437565b82525050565b5f6040820190506104625f830185610440565b61046f6020830184610440565b9392505050565b5f82825260208201905092915050565b7f5665746f20697320656e642e00000000000000000000000000000000000000005f82015250565b5f6104ba600c83610476565b91506104c582610486565b602082019050919050565b5f6020820190508181035f8301526104e7816104ae565b9050919050565b7f4e487b71000000000000000000000000000000000000000000000000000000005f52601160045260245ffd5b5f61052582610437565b915061053083610437565b9250828201905080821115610548576105476104ee565b5b92915050565b7f796f75206e6f74206973207665746f20686f73747300000000000000000000005f82015250565b5f610582601583610476565b915061058d8261054e565b602082019050919050565b5f6020820190508181035f8301526105af81610576565b905091905056fea264697066735822122029873c81b00dbe9dc006528126a14a98ef44e519f93819db171018304713d43964736f6c63430008160033",
					"opcodes": "PUSH1 0x80 PUSH1 0x40 MSTORE CALLVALUE DUP1 ISZERO PUSH2 0xF JUMPI PUSH0 DUP1 REVERT JUMPDEST POP PUSH2 0x5EC DUP1 PUSH2 0x1D PUSH0 CODECOPY PUSH0 RETURN INVALID PUSH1 0x80 PUSH1 0x40 MSTORE CALLVALUE DUP1 ISZERO PUSH2 0xF JUMPI PUSH0 DUP1 REVERT JUMPDEST POP PUSH1 0x4 CALLDATASIZE LT PUSH2 0x4A JUMPI PUSH0 CALLDATALOAD PUSH1 0xE0 SHR DUP1 PUSH4 0x3B5D519 EQ PUSH2 0x4E JUMPI DUP1 PUSH4 0x1FA97C61 EQ PUSH2 0x6A JUMPI DUP1 PUSH4 0x3CC6C604 EQ PUSH2 0x86 JUMPI DUP1 PUSH4 0x725F4FA7 EQ PUSH2 0xA2 JUMPI JUMPDEST PUSH0 DUP1 REVERT JUMPDEST PUSH2 0x68 PUSH1 0x4 DUP1 CALLDATASIZE SUB DUP2 ADD SWAP1 PUSH2 0x63 SWAP2 SWAP1 PUSH2 0x316 JUMP JUMPDEST PUSH2 0xC1 JUMP JUMPDEST STOP JUMPDEST PUSH2 0x84 PUSH1 0x4 DUP1 CALLDATASIZE SUB DUP2 ADD SWAP1 PUSH2 0x7F SWAP2 SWAP1 PUSH2 0x39B JUMP JUMPDEST PUSH2 0x1CC JUMP JUMPDEST STOP JUMPDEST PUSH2 0xA0 PUSH1 0x4 DUP1 CALLDATASIZE SUB DUP2 ADD SWAP1 PUSH2 0x9B SWAP2 SWAP1 PUSH2 0x3F9 JUMP JUMPDEST PUSH2 0x27B JUMP JUMPDEST STOP JUMPDEST PUSH2 0xAA PUSH2 0x2C9 JUMP JUMPDEST PUSH1 0x40 MLOAD PUSH2 0xB8 SWAP3 SWAP2 SWAP1 PUSH2 0x44F JUMP JUMPDEST PUSH1 0x40 MLOAD DUP1 SWAP2 SUB SWAP1 RETURN JUMPDEST PUSH1 0x1 ISZERO ISZERO PUSH0 PUSH1 0x5 ADD PUSH0 SWAP1 SLOAD SWAP1 PUSH2 0x100 EXP SWAP1 DIV PUSH1 0xFF AND ISZERO ISZERO EQ PUSH2 0x118 JUMPI PUSH1 0x40 MLOAD PUSH32 0x8C379A000000000000000000000000000000000000000000000000000000000 DUP2 MSTORE PUSH1 0x4 ADD PUSH2 0x10F SWAP1 PUSH2 0x4D0 JUMP JUMPDEST PUSH1 0x40 MLOAD DUP1 SWAP2 SUB SWAP1 REVERT JUMPDEST PUSH1 0x1 ISZERO ISZERO DUP2 ISZERO ISZERO SUB PUSH2 0x140 JUMPI PUSH1 0x1 PUSH0 PUSH1 0x2 ADD PUSH0 DUP3 DUP3 SLOAD PUSH2 0x138 SWAP2 SWAP1 PUSH2 0x51B JUMP JUMPDEST SWAP3 POP POP DUP2 SWAP1 SSTORE POP JUMPDEST PUSH0 ISZERO ISZERO DUP2 ISZERO ISZERO SUB PUSH2 0x167 JUMPI PUSH1 0x1 PUSH0 PUSH1 0x3 ADD PUSH0 DUP3 DUP3 SLOAD PUSH2 0x15F SWAP2 SWAP1 PUSH2 0x51B JUMP JUMPDEST SWAP3 POP POP DUP2 SWAP1 SSTORE POP JUMPDEST PUSH0 PUSH1 0x4 ADD CALLER SWAP1 DUP1 PUSH1 0x1 DUP2 SLOAD ADD DUP1 DUP3 SSTORE DUP1 SWAP2 POP POP PUSH1 0x1 SWAP1 SUB SWAP1 PUSH0 MSTORE PUSH1 0x20 PUSH0 KECCAK256 ADD PUSH0 SWAP1 SWAP2 SWAP1 SWAP2 SWAP1 SWAP2 PUSH2 0x100 EXP DUP2 SLOAD DUP2 PUSH20 0xFFFFFFFFFFFFFFFFFFFFFFFFFFFFFFFFFFFFFFFF MUL NOT AND SWAP1 DUP4 PUSH20 0xFFFFFFFFFFFFFFFFFFFFFFFFFFFFFFFFFFFFFFFF AND MUL OR SWAP1 SSTORE POP POP JUMP JUMPDEST DUP1 PUSH20 0xFFFFFFFFFFFFFFFFFFFFFFFFFFFFFFFFFFFFFFFF AND PUSH0 PUSH1 0x1 ADD PUSH0 SWAP1 SLOAD SWAP1 PUSH2 0x100 EXP SWAP1 DIV PUSH20 0xFFFFFFFFFFFFFFFFFFFFFFFFFFFFFFFFFFFFFFFF AND PUSH20 0xFFFFFFFFFFFFFFFFFFFFFFFFFFFFFFFFFFFFFFFF AND EQ PUSH2 0x25D JUMPI PUSH1 0x40 MLOAD PUSH32 0x8C379A000000000000000000000000000000000000000000000000000000000 DUP2 MSTORE PUSH1 0x4 ADD PUSH2 0x254 SWAP1 PUSH2 0x598 JUMP JUMPDEST PUSH1 0x40 MLOAD DUP1 SWAP2 SUB SWAP1 REVERT JUMPDEST PUSH0 DUP1 PUSH1 0x5 ADD PUSH0 PUSH2 0x100 EXP DUP2 SLOAD DUP2 PUSH1 0xFF MUL NOT AND SWAP1 DUP4 ISZERO ISZERO MUL OR SWAP1 SSTORE POP POP JUMP JUMPDEST DUP2 PUSH0 DUP1 ADD DUP2 SWAP1 SSTORE POP DUP1 PUSH0 PUSH1 0x1 ADD PUSH0 PUSH2 0x100 EXP DUP2 SLOAD DUP2 PUSH20 0xFFFFFFFFFFFFFFFFFFFFFFFFFFFFFFFFFFFFFFFF MUL NOT AND SWAP1 DUP4 PUSH20 0xFFFFFFFFFFFFFFFFFFFFFFFFFFFFFFFFFFFFFFFF AND MUL OR SWAP1 SSTORE POP POP POP JUMP JUMPDEST PUSH0 DUP1 PUSH0 PUSH1 0x2 ADD SLOAD PUSH0 PUSH1 0x3 ADD SLOAD SWAP2 POP SWAP2 POP SWAP1 SWAP2 JUMP JUMPDEST PUSH0 DUP1 REVERT JUMPDEST PUSH0 DUP2 ISZERO ISZERO SWAP1 POP SWAP2 SWAP1 POP JUMP JUMPDEST PUSH2 0x2F5 DUP2 PUSH2 0x2E1 JUMP JUMPDEST DUP2 EQ PUSH2 0x2FF JUMPI PUSH0 DUP1 REVERT JUMPDEST POP JUMP JUMPDEST PUSH0 DUP2 CALLDATALOAD SWAP1 POP PUSH2 0x310 DUP2 PUSH2 0x2EC JUMP JUMPDEST SWAP3 SWAP2 POP POP JUMP JUMPDEST PUSH0 PUSH1 0x20 DUP3 DUP5 SUB SLT ISZERO PUSH2 0x32B JUMPI PUSH2 0x32A PUSH2 0x2DD JUMP JUMPDEST JUMPDEST PUSH0 PUSH2 0x338 DUP5 DUP3 DUP6 ADD PUSH2 0x302 JUMP JUMPDEST SWAP2 POP POP SWAP3 SWAP2 POP POP JUMP JUMPDEST PUSH0 PUSH20 0xFFFFFFFFFFFFFFFFFFFFFFFFFFFFFFFFFFFFFFFF DUP3 AND SWAP1 POP SWAP2 SWAP1 POP JUMP JUMPDEST PUSH0 PUSH2 0x36A DUP3 PUSH2 0x341 JUMP JUMPDEST SWAP1 POP SWAP2 SWAP1 POP JUMP JUMPDEST PUSH2 0x37A DUP2 PUSH2 0x360 JUMP JUMPDEST DUP2 EQ PUSH2 0x384 JUMPI PUSH0 DUP1 REVERT JUMPDEST POP JUMP JUMPDEST PUSH0 DUP2 CALLDATALOAD SWAP1 POP PUSH2 0x395 DUP2 PUSH2 0x371 JUMP JUMPDEST SWAP3 SWAP2 POP POP JUMP JUMPDEST PUSH0 PUSH1 0x20 DUP3 DUP5 SUB SLT ISZERO PUSH2 0x3B0 JUMPI PUSH2 0x3AF PUSH2 0x2DD JUMP JUMPDEST JUMPDEST PUSH0 PUSH2 0x3BD DUP5 DUP3 DUP6 ADD PUSH2 0x387 JUMP JUMPDEST SWAP2 POP POP SWAP3 SWAP2 POP POP JUMP JUMPDEST PUSH0 DUP2 SWAP1 POP SWAP2 SWAP1 POP JUMP JUMPDEST PUSH2 0x3D8 DUP2 PUSH2 0x3C6 JUMP JUMPDEST DUP2 EQ PUSH2 0x3E2 JUMPI PUSH0 DUP1 REVERT JUMPDEST POP JUMP JUMPDEST PUSH0 DUP2 CALLDATALOAD SWAP1 POP PUSH2 0x3F3 DUP2 PUSH2 0x3CF JUMP JUMPDEST SWAP3 SWAP2 POP POP JUMP JUMPDEST PUSH0 DUP1 PUSH1 0x40 DUP4 DUP6 SUB SLT ISZERO PUSH2 0x40F JUMPI PUSH2 0x40E PUSH2 0x2DD JUMP JUMPDEST JUMPDEST PUSH0 PUSH2 0x41C DUP6 DUP3 DUP7 ADD PUSH2 0x3E5 JUMP JUMPDEST SWAP3 POP POP PUSH1 0x20 PUSH2 0x42D DUP6 DUP3 DUP7 ADD PUSH2 0x387 JUMP JUMPDEST SWAP2 POP POP SWAP3 POP SWAP3 SWAP1 POP JUMP JUMPDEST PUSH0 DUP2 SWAP1 POP SWAP2 SWAP1 POP JUMP JUMPDEST PUSH2 0x449 DUP2 PUSH2 0x437 JUMP JUMPDEST DUP3 MSTORE POP POP JUMP JUMPDEST PUSH0 PUSH1 0x40 DUP3 ADD SWAP1 POP PUSH2 0x462 PUSH0 DUP4 ADD DUP6 PUSH2 0x440 JUMP JUMPDEST PUSH2 0x46F PUSH1 0x20 DUP4 ADD DUP5 PUSH2 0x440 JUMP JUMPDEST SWAP4 SWAP3 POP POP POP JUMP JUMPDEST PUSH0 DUP3 DUP3 MSTORE PUSH1 0x20 DUP3 ADD SWAP1 POP SWAP3 SWAP2 POP POP JUMP JUMPDEST PUSH32 0x5665746F20697320656E642E0000000000000000000000000000000000000000 PUSH0 DUP3 ADD MSTORE POP JUMP JUMPDEST PUSH0 PUSH2 0x4BA PUSH1 0xC DUP4 PUSH2 0x476 JUMP JUMPDEST SWAP2 POP PUSH2 0x4C5 DUP3 PUSH2 0x486 JUMP JUMPDEST PUSH1 0x20 DUP3 ADD SWAP1 POP SWAP2 SWAP1 POP JUMP JUMPDEST PUSH0 PUSH1 0x20 DUP3 ADD SWAP1 POP DUP2 DUP2 SUB PUSH0 DUP4 ADD MSTORE PUSH2 0x4E7 DUP2 PUSH2 0x4AE JUMP JUMPDEST SWAP1 POP SWAP2 SWAP1 POP JUMP JUMPDEST PUSH32 0x4E487B7100000000000000000000000000000000000000000000000000000000 PUSH0 MSTORE PUSH1 0x11 PUSH1 0x4 MSTORE PUSH1 0x24 PUSH0 REVERT JUMPDEST PUSH0 PUSH2 0x525 DUP3 PUSH2 0x437 JUMP JUMPDEST SWAP2 POP PUSH2 0x530 DUP4 PUSH2 0x437 JUMP JUMPDEST SWAP3 POP DUP3 DUP3 ADD SWAP1 POP DUP1 DUP3 GT ISZERO PUSH2 0x548 JUMPI PUSH2 0x547 PUSH2 0x4EE JUMP JUMPDEST JUMPDEST SWAP3 SWAP2 POP POP JUMP JUMPDEST PUSH32 0x796F75206E6F74206973207665746F20686F7374730000000000000000000000 PUSH0 DUP3 ADD MSTORE POP JUMP JUMPDEST PUSH0 PUSH2 0x582 PUSH1 0x15 DUP4 PUSH2 0x476 JUMP JUMPDEST SWAP2 POP PUSH2 0x58D DUP3 PUSH2 0x54E JUMP JUMPDEST PUSH1 0x20 DUP3 ADD SWAP1 POP SWAP2 SWAP1 POP JUMP JUMPDEST PUSH0 PUSH1 0x20 DUP3 ADD SWAP1 POP DUP2 DUP2 SUB PUSH0 DUP4 ADD MSTORE PUSH2 0x5AF DUP2 PUSH2 0x576 JUMP JUMPDEST SWAP1 POP SWAP2 SWAP1 POP JUMP INVALID LOG2 PUSH5 0x6970667358 0x22 SLT KECCAK256 0x29 DUP8 EXTCODECOPY DUP2 0xB0 0xD 0xBE SWAP14 0xC0 MOD MSTORE DUP2 0x26 LOG1 0x4A SWAP9 0xEF PREVRANDAO 0xE5 NOT 0xF9 CODESIZE NOT 0xDB OR LT XOR ADDRESS SELFBALANCE SGT 0xD4 CODECOPY PUSH5 0x736F6C6343 STOP ADDMOD AND STOP CALLER "
				},
				"gasEstimates": {
					"creation": {
						"codeDepositCost": "303200",
						"executionCost": "341",
						"totalCost": "303541"
					},
					"external": {
						"GetValue()": "infinite",
						"VetoEnd(address)": "26895",
						"VoteActor(bool)": "infinite",
						"setID(bytes32,address)": "47032"
					}
				},
				"methodIdentifiers": {
					"GetValue()": "725f4fa7",
					"VetoEnd(address)": "1fa97c61",
					"VoteActor(bool)": "03b5d519",
					"setID(bytes32,address)": "3cc6c604"
				}
			},
			"storageLayout": {
				"storage": [
					{
						"astId": 18,
						"contract": "the New/contracts/veto.sol:TheVote",
						"label": "voteObject",
						"offset": 0,
						"slot": "0",
						"type": "t_struct(VoteMain)15_storage"
					}
				],
				"types": {
					"t_address": {
						"encoding": "inplace",
						"label": "address",
						"numberOfBytes": "20"
					},
					"t_array(t_address)dyn_storage": {
						"base": "t_address",
						"encoding": "dynamic_array",
						"label": "address[]",
						"numberOfBytes": "32"
					},
					"t_bool": {
						"encoding": "inplace",
						"label": "bool",
						"numberOfBytes": "1"
					},
					"t_bytes32": {
						"encoding": "inplace",
						"label": "bytes32",
						"numberOfBytes": "32"
					},
					"t_struct(VoteMain)15_storage": {
						"encoding": "inplace",
						"label": "struct TheVote.VoteMain",
						"members": [
							{
								"astId": 3,
								"contract": "the New/contracts/veto.sol:TheVote",
								"label": "ID",
								"offset": 0,
								"slot": "0",
								"type": "t_bytes32"
							},
							{
								"astId": 5,
								"contract": "the New/contracts/veto.sol:TheVote",
								"label": "Hosts",
								"offset": 0,
								"slot": "1",
								"type": "t_address"
							},
							{
								"astId": 7,
								"contract": "the New/contracts/veto.sol:TheVote",
								"label": "TrueVote",
								"offset": 0,
								"slot": "2",
								"type": "t_uint256"
							},
							{
								"astId": 9,
								"contract": "the New/contracts/veto.sol:TheVote",
								"label": "FalseVote",
								"offset": 0,
								"slot": "3",
								"type": "t_uint256"
							},
							{
								"astId": 12,
								"contract": "the New/contracts/veto.sol:TheVote",
								"label": "VotedMan",
								"offset": 0,
								"slot": "4",
								"type": "t_array(t_address)dyn_storage"
							},
							{
								"astId": 14,
								"contract": "the New/contracts/veto.sol:TheVote",
								"label": "isActiol",
								"offset": 0,
								"slot": "5",
								"type": "t_bool"
							}
						],
						"numberOfBytes": "192"
					},
					"t_uint256": {
						"encoding": "inplace",
						"label": "uint256",
						"numberOfBytes": "32"
					}
				}
			},
			"userdoc": {
				"kind": "user",
				"methods": {},
				"version": 1
			}
		}
	}
}